:020000040000fa
:080000000001040000000000f3
:020000040000fa
:0400080032030000bf
:020000040000fa
:04000c0032030000bb
:020000040000fa
:0400100032030000b7
:020000040000fa
:0400140032030000b3
:020000040000fa
:0400180032030000af
:020000040000fa
:04001c0032030000ab
:020000040000fa
:0400200032030000a7
:020000040000fa
:0400240032030000a3
:020000040000fa
:040028007c02000056
:020000040000fa
:04002c00320300009b
:020000040000fa
:040030003203000097
:020000040000fa
:040034003203000093
:020000040000fa
:04003800320300008f
:020000040000fa
:04003c00320300008b
:020000040000fa
:040040003203000087
:020000040000fa
:040044003203000083
:020000040000fa
:04004800320300007f
:020000040000fa
:04004c00c8010000e7
:020000040000fa
:040050003203000077
:020000040000fa
:040054003203000073
:020000040000fa
:04005800320300006f
:020000040000fa
:04005c00320300006b
:020000040000fa
:040060003203000067
:020000040000fa
:040064003203000063
:020000040000fa
:04006800320300005f
:020000040000fa
:04006c00320300005b
:020000040000fa
:040070003203000057
:020000040000fa
:040074003203000053
:020000040000fa
:04007800320300004f
:020000040000fa
:04007c00320300004b
:020000040000fa
:040080003203000047
:020000040000fa
:040084003203000043
:020000040000fa
:04008800320300003f
:020000040000fa
:04008c00320300003b
:020000040000fa
:040090003203000037
:020000040000fa
:040094003203000033
:020000040000fa
:04009800320300002f
:020000040000fa
:04009c00320300002b
:020000040000fa
:0400a0003203000027
:020000040000fa
:0400a4003203000023
:020000040000fa
:0400a800320300001f
:020000040000fa
:0400ac00320300001b
:020000040000fa
:0400b0003203000017
:020000040000fa
:0400b4003203000013
:020000040000fa
:0400b800320300000f
:020000040000fa
:0400bc00320300000b
:020000040000fa
:0400c0003203000007
:020000040000fa
:0400c4003203000003
:020000040000fa
:0400c80032030000ff
:020000040000fa
:0400cc0032030000fb
:020000040000fa
:0400d00032030000f7
:020000040000fa
:0400d40032030000f3
:020000040000fa
:0400d80032030000ef
:020000040000fa
:0401080032030000be
:020000040000fa
:04010c0032030000ba
:020000040000fa
:0401100032030000b6
:020000040000fa
:0401140032030000b2
:020000040000fa
:0401180032030000ae
:020000040000fa
:04011c0032030000aa
:020000040000fa
:0401200032030000a6
:020000040000fa
:0401240032030000a2
:020000040000fa
:04012800320300009e
:020000040000fa
:04012c00320300009a
:020000040000fa
:040130003203000096
:020000040000fa
:040134003203000092
:020000040000fa
:04013800320300008e
:020000040000fa
:04013c00320300008a
:020000040000fa
:040140003203000086
:020000040000fa
:040144003203000082
:020000040000fa
:04014800320300007e
:020000040000fa
:04014c00320300007a
:020000040000fa
:040150003203000076
:020000040000fa
:040154003203000072
:020000040000fa
:04015800320300006e
:020000040000fa
:04015c00320300006a
:020000040000fa
:040160003203000066
:020000040000fa
:040164003203000062
:020000040000fa
:04016800320300005e
:020000040000fa
:04016c00320300005a
:020000040000fa
:040170003203000056
:020000040000fa
:040174003203000052
:020000040000fa
:04017800320300004e
:020000040000fa
:04017c00320300004a
:020000040000fa
:040180003203000046
:020000040000fa
:040184003203000042
:020000040000fa
:04018800320300003e
:020000040000fa
:04018c00320300003a
:020000040000fa
:040190003203000036
:020000040000fa
:040194003203000032
:020000040000fa
:04019800320300002e
:020000040000fa
:04019c00320300002a
:020000040000fa
:0401a0003203000026
:020000040000fa
:0401a4003203000022
:020000040000fa
:0401a800320300001e
:020000040000fa
:0401ac00320300001a
:020000040000fa
:0401b0003203000016
:020000040000fa
:0401b4003203000012
:020000040000fa
:0401b800320300000e
:020000040000fa
:0401bc00320300000a
:020000040000fa
:0401c0003203000006
:020000040000fa
:0401c4003203000002
:020000040000fa
:0401c80032030000fe
:020000040000fa
:0401cc0032030000fa
:020000040000fa
:0401d00032030000f6
:020000040000fa
:0401d40032030000f2
:020000040000fa
:0401d80032030000ee
:020000040000fa
:10020000ef8020000eff20000e018800000000009b
:10021000000020000000e000020032000001200089
:100220002002880014000700100107000000e00011
:1002300003003a00006020000100200002003700a7
:100240000000200001002000810f7000010032003a
:1002500014000700000020000000e000020032004f
:100260000000020000000000ae02020000000000da
:100270000040da000000fe004440a9000000200019
:100280000000e0000300320000002000a001880010
:100290004440a800000006008a1f78008b1f7800e9
:1002a0000000060091018800800478000000eb0047
:1002b0001a003700e284440032a0b4009905ba0065
:1002c000e284440032a0b4009906ba00e2844400fb
:1002d00032a0b4000006eb00476fde00fd07b2005d
:1002e000636ce10003003a00ebff07000000eb0045
:1002f0000a003700606ce10004003a00005deb008a
:100300008b05e900fdff3e00040037006168e10055
:10031000010032000086eb000b00070019c7ba008d
:100320001905ba000e04e00003003a000a00e000dc
:10033000e0ff3a0000000600fe07b2009e018800c0
:100340008a047800f5ff3700395dba008b05e900b3
:100350000c003200295dba008b05e900080032006c
:100360000c00e00003003a00e284440032a0b40034
:10037000f5ff370019ddba008b05e900faff3a00f6
:100380008904e800e184440032a0b40000000600c3
:100390003600f800809fbe00829fbe00849fbe0092
:1003a000869fbe003400f80000002000a0018800f5
:1003b0000000fa00d70107000040880001408000db
:1003c000b0022000808f50001f003a0000408000e3
:1003d000d90107005040800061408000610040006a
:1003e000e080480050408800614088005240800012
:1003f00063408000200b200001002000800f51008e
:10040000818f590005003600300b200001002000cc
:1004100050408800614088000b0037005240800047
:10042000634080001000200001002000800f510078
:10043000818f590004003e001000200001002000c0
:10044000504088006140880001408000d0022000b8
:10045000808f50001f003a005040800061408000b3
:1004600061005000e08058005040880061408800e2
:1004700000408000b00107005240800063408000cf
:10048000200b200001002000800f5100818f5900b7
:1004900005003600300b200001002000504088008d
:1004a000614088000b0037005240800063408000ac
:1004b0001000200001002000800f5100818f5900a2
:1004c00004003e0010002000010020005040880081
:1004d000614088008520a9000080fa003400f900fe
:1004e0004f03be004f02be004f01be004f00be00d2
:1004f0003600f900004006003600f800809fbe007c
:10050000829fbe00849fbe00869fbe003400f8001c
:1005100000002000a00188000000fa0010c0b30015
:100520009b0007008400a9005040800061408000cb
:100530000000780040408800ca42a9000080fa000c
:100540003400f9004f03be004f02be004f01be0051
:100550004f00be003600f900004006000000fa001f
:10056000b00107000018210086010700a001070064
:10057000305620004e00070030562000740007005f
:10058000305620009b0007000080200071002000f2
:100590003801070081e0a8008d20a800c104800078
:1005a000f0f82f00008060000050a000c004880018
:1005b0008520a9008200a9008c00a800a104800069
:1005c00080ff2f00008060000010a000a0048800c1
:1005d0008400a900ca42a9000300370000000000ff
:1005e000010037000000000076000700e14f5000d6
:1005f000faff3a0020408000314080006100400056
:10060000e080480020408800314088004040800061
:100610006101b8002040800031408000800f51000f
:10062000818f590001003e00ca42a800404080006e
:100630006a0040006101b800204080003140800025
:10064000800f5100818f5900e6ff3e000428ef0023
:100650000628ef00ca42a9000040eb004c0007004a
:10066000e1ff37000040da000000fe000000050056
:100670006022b800060220000000d0008180d20075
:100680000482d2008582d2000000a0000202520043
:1006900083825a00030031000202420083824a0032
:1006a0000000a1000603e900f3ff3a000000060085
:020000040000fa
:1006b0000200fa00000f78008460a90005e1a9009b
:1006c00005a1a90004c1a90021088000f0fc2f00a9
:1006d00000806000200888000441a9000421a900ce
:1006e0009e007800110888000080fa0000000600d3
:1006f0000200fa00004f78009e40780061c0600060
:100700000080fb004f00dd0022088000f1ff270081
:100710008100610001007000200888000080fa005c
:10072000000006000000fa0020048000680060005d
:100730000000e000030032008460a90010c0b30094
:10074000010037000040eb000080fa0000000600c6
:100750000200fa00000f780084c0a90011e1a9008e
:1007600011a1a90010c1a90081088000f0fc2f0090
:1007700000806000800888001021a9001061a90095
:100780009e007800610888000080fa0000000600e2
:100790000200fa00004f78009e40780061c06000bf
:1007a0000080fb004f00dd0082088000f1ff270081
:1007b0008100610001007000800888000080fa005c
:1007c000000006000000fa00210480000004200060
:1007d000008060000000e0000300320084c0a90037
:1007e00010c0b300010037000040eb000080fa00a9
:1007f000000006000200fa00000f780084e0a90063
:1008000013e1a90013a1a90012c1a9009108800059
:10081000f0fc2f0000806000900888001221a900e1
:100820009e007800710888000080fa000000060031
:100830000200fa00004f78009e40780061c060001e
:100840000080fb004f00dd0092088000f1ff2700d0
:100850008100610001007000900888000080fa00ab
:10086000000006000000fa002104800000082000bb
:10087000008060000000e0000300320084e0a90076
:1008800010c0b300010037000040eb000080fa0008
:10089000000006000400fa00008fbe0086c0a90018
:1008a0001fe1a9001fa1a9001ec1a900f108800035
:1008b0000003200001007000f00888001e21a9003c
:1008c0001e61a8001e007800d00888001e00be002f
:1008d0004008de0000007800e00888000080fa0090
:1008e000000006000200fa00004f78009e407800e9
:1008f00061c060000080fb004f00dd00f208800056
:10090000f1ff27008100610001007000f0088800fd
:100910000080fa00000006000000fa0031048000a8
:1009200000042000008060000000e00003003200ae
:1009300086c0a90010c0b300010037000040eb00e2
:100940000080fa00000006000000fa00a042a900a2
:1009500001158000000e20000100700000158800c5
:1009600001158000f0cf2f00008060000015880086
:10097000a1a2a900a1e2a900a202a900a222a900a5
:100980001115800030fc2f000080600010158800d9
:10099000a342a90011158000f0ff21000080600033
:1009a000101588002115800000fc2f008080600059
:1009b000700220000100700020158800a4e2a90048
:1009c00021158000f00f2e00008060000080a00044
:1009d000201588000080fa00000006000200fa00de
:1009e000000f78001e007800004078006140600031
:1009f0000080fb004f00dd0002158000f1ff2700a2
:100a00008100610001007000001588000080fa007c
:100a1000000006000200fa00004f78001e80fb0074
:100a2000301588000080fa00000006000000fa007f
:100a30001000200030168800e0ff2f0040158800cd
:100a4000aa22ef000080fa00000006000000fa0071
:100a5000a022a800000000000015800061006000d6
:100a60000000e000fcff3200001480000080fa006b
:100a7000000006000600fa00100798002107980001
:100a80000000eb00000f78000c02a900611080004c
:100a900090ff2f0000806000601088000ca2a90069
:100aa0000cc2a9000d42a9000da2a9000de2a800e8
:100ab0000e22a9000ea2a90071108000f0f32f00f1
:100ac00000806000701088000f42a8000f62a9002b
:100ad0000fe2a9001e019000ae0190004618dd0053
:100ae000ca10de00810070004610dd000001be006b
:100af00000e0200071722000ddfe07000000780099
:100b0000000fe9009e007800a11088000080fa0024
:100b1000000006000000fa000000000070108000d5
:100b2000610060000000e000fcff320090108000d7
:100b30000080fa00000006000200fa00000f7800b2
:100b40000000000071108000002020000080600084
:100b50000000e000fbff3a00f00f20001e006000e4
:100b6000801088000000000071108000001020003c
:100b7000008060000000e000fbff32000080fa000f
:100b8000000006000400fa00100798000040eb0087
:100b9000004f78000040eb00104798001e009000c6
:100ba000004f78001e0090004800de0010479800bb
:100bb00060c4b30042e7b70070c5b30042e7b700b6
:100bc0001e417800217420008248780060c7b3007d
:100bd00043e7b700a0c9b30043e7b7001e41900048
:100be00031742000824878000080fa00000006007e
:100bf0000000fa004427ef000080fa000000060021
:020000040000fa
:100c0000000800000a000000000000000a080000c0
:100c1000040000000200000050000000000000007e
:040c200000000000d0
:020000040000fa
:100c24000000fa0010002000301688000080fa004e
:040c340000000600b6
:020000040000fa
:0200000401f009
:04000000e3bf00005a
:020000040000fa
:0200000401f009
:04000400ff7f00007a
:020000040000fa
:0200000401f009
:040008007fff000076
:020000040000fa
:0200000401f009
:04001400ffff0000ea
:020000040000fa
:0200000401f009
:04001800ffff0000e6
:00000001FF
